{
  "_format": "hh-sol-artifact-1",
  "contractName": "Voting",
  "sourceName": "contracts/voting.sol",
  "abi": [
    {
      "anonymous": false,
      "inputs": [
        {
          "indexed": false,
          "internalType": "string",
          "name": "pin",
          "type": "string"
        }
      ],
      "name": "ElectionCreated",
      "type": "event"
    },
    {
      "anonymous": false,
      "inputs": [
        {
          "indexed": false,
          "internalType": "string",
          "name": "pin",
          "type": "string"
        },
        {
          "indexed": false,
          "internalType": "uint256",
          "name": "candidateIndex",
          "type": "uint256"
        }
      ],
      "name": "Voted",
      "type": "event"
    },
    {
      "inputs": [
        {
          "internalType": "string",
          "name": "_pin",
          "type": "string"
        }
      ],
      "name": "closeElection",
      "outputs": [],
      "stateMutability": "nonpayable",
      "type": "function"
    },
    {
      "inputs": [
        {
          "internalType": "string",
          "name": "_pin",
          "type": "string"
        },
        {
          "internalType": "string[]",
          "name": "_candidates",
          "type": "string[]"
        }
      ],
      "name": "createElection",
      "outputs": [],
      "stateMutability": "nonpayable",
      "type": "function"
    },
    {
      "inputs": [
        {
          "internalType": "uint256",
          "name": "",
          "type": "uint256"
        }
      ],
      "name": "electionPins",
      "outputs": [
        {
          "internalType": "string",
          "name": "",
          "type": "string"
        }
      ],
      "stateMutability": "view",
      "type": "function"
    },
    {
      "inputs": [
        {
          "internalType": "string",
          "name": "",
          "type": "string"
        }
      ],
      "name": "elections",
      "outputs": [
        {
          "internalType": "string",
          "name": "pin",
          "type": "string"
        },
        {
          "internalType": "bool",
          "name": "active",
          "type": "bool"
        },
        {
          "internalType": "uint256",
          "name": "candidateCount",
          "type": "uint256"
        }
      ],
      "stateMutability": "view",
      "type": "function"
    },
    {
      "inputs": [
        {
          "internalType": "string",
          "name": "_pin",
          "type": "string"
        }
      ],
      "name": "getCandidateCount",
      "outputs": [
        {
          "internalType": "uint256",
          "name": "",
          "type": "uint256"
        }
      ],
      "stateMutability": "view",
      "type": "function"
    },
    {
      "inputs": [
        {
          "internalType": "string",
          "name": "_pin",
          "type": "string"
        },
        {
          "internalType": "uint256",
          "name": "_index",
          "type": "uint256"
        }
      ],
      "name": "getCandidateInfo",
      "outputs": [
        {
          "internalType": "string",
          "name": "",
          "type": "string"
        },
        {
          "internalType": "uint256",
          "name": "",
          "type": "uint256"
        }
      ],
      "stateMutability": "view",
      "type": "function"
    },
    {
      "inputs": [
        {
          "internalType": "string",
          "name": "_pin",
          "type": "string"
        }
      ],
      "name": "getVoters",
      "outputs": [
        {
          "internalType": "address[]",
          "name": "",
          "type": "address[]"
        }
      ],
      "stateMutability": "view",
      "type": "function"
    },
    {
      "inputs": [
        {
          "internalType": "string",
          "name": "_pin",
          "type": "string"
        },
        {
          "internalType": "uint256",
          "name": "_candidateIndex",
          "type": "uint256"
        }
      ],
      "name": "vote",
      "outputs": [],
      "stateMutability": "nonpayable",
      "type": "function"
    }
  ],
  "bytecode": "0x6080604052348015600f57600080fd5b506119998061001f6000396000f3fe608060405234801561001057600080fd5b50600436106100885760003560e01c8063878af3351161005b578063878af33514610128578063a638580314610158578063ae179ebc14610174578063ba1717e2146101a457610088565b8063349813b21461008d5780634a3ccc96146100a957806354b79377146100db5780637d8d6d831461010c575b600080fd5b6100a760048036038101906100a29190610f1e565b6101d4565b005b6100c360048036038101906100be9190610f96565b610390565b6040516100d293929190611092565b60405180910390f35b6100f560048036038101906100f091906110fc565b610465565b604051610103929190611158565b60405180910390f35b61012660048036038101906101219190610f96565b610611565b005b610142600480360381019061013d9190610f96565b6106bc565b60405161014f9190611278565b60405180910390f35b610172600480360381019061016d91906110fc565b6108ad565b005b61018e60048036038101906101899190610f96565b610b98565b60405161019b919061129a565b60405180910390f35b6101be60048036038101906101b991906112b5565b610c32565b6040516101cb91906112e2565b60405180910390f35b600080836040516101e59190611340565b9081526020016040518091039020600001805461020190611386565b905014610243576040517f08c379a000000000000000000000000000000000000000000000000000000000815260040161023a90611403565b60405180910390fd5b600080836040516102549190611340565b908152602001604051809103902090508281600001908161027591906115cf565b5060018160010160006101000a81548160ff0219169083151502179055508151816003018190555060005b825181101561031e5760405180604001604052808483815181106102c7576102c66116a1565b5b602002602001015181526020016000815250826002016000838152602001908152602001600020600082015181600001908161030391906115cf565b506020820151816001015590505080806001019150506102a0565b5060018390806001815401808255809150506001900390600052602060002001600090919091909150908161035391906115cf565b507fca2fcb21be8a98de073c6f480caeadc3c4054effa10076cd2d6cb4fd381c4c918360405161038391906112e2565b60405180910390a1505050565b6000818051602081018201805184825260208301602085012081835280955050505050506000915090508060000180546103c990611386565b80601f01602080910402602001604051908101604052809291908181526020018280546103f590611386565b80156104425780601f1061041757610100808354040283529160200191610442565b820191906000526020600020905b81548152906001019060200180831161042557829003601f168201915b5050505050908060010160009054906101000a900460ff16908060030154905083565b606060008060008560405161047a9190611340565b9081526020016040518091039020600001805461049690611386565b9050036104d8576040517f08c379a00000000000000000000000000000000000000000000000000000000081526004016104cf9061171c565b60405180910390fd5b6000846040516104e89190611340565b908152602001604051809103902060030154831061053b576040517f08c379a000000000000000000000000000000000000000000000000000000000815260040161053290611788565b60405180910390fd5b6000808560405161054c9190611340565b90815260200160405180910390206002016000858152602001908152602001600020905080600001816001015481805461058590611386565b80601f01602080910402602001604051908101604052809291908181526020018280546105b190611386565b80156105fe5780601f106105d3576101008083540402835291602001916105fe565b820191906000526020600020905b8154815290600101906020018083116105e157829003601f168201915b5050505050915092509250509250929050565b600080826040516106229190611340565b9081526020016040518091039020600001805461063e90611386565b905003610680576040517f08c379a00000000000000000000000000000000000000000000000000000000081526004016106779061171c565b60405180910390fd5b600080826040516106919190611340565b908152602001604051809103902060010160006101000a81548160ff02191690831515021790555050565b6060600080836040516106cf9190611340565b908152602001604051809103902060000180546106eb90611386565b90500361072d576040517f08c379a00000000000000000000000000000000000000000000000000000000081526004016107249061171c565b60405180910390fd5b6000808360405161073e9190611340565b90815260200160405180910390206003015467ffffffffffffffff81111561076957610768610d0d565b5b6040519080825280602002602001820160405280156107975781602001602082028036833780820191505090505b5090506000805b6000856040516107ae9190611340565b9081526020016040518091039020600301548110156108a2576000856040516107d79190611340565b908152602001604051809103902060040160003373ffffffffffffffffffffffffffffffffffffffff1673ffffffffffffffffffffffffffffffffffffffff16815260200190815260200160002060009054906101000a900460ff1615610895573383838151811061084c5761084b6116a1565b5b602002602001019073ffffffffffffffffffffffffffffffffffffffff16908173ffffffffffffffffffffffffffffffffffffffff16815250508180610891906117d7565b9250505b808060010191505061079e565b508192505050919050565b600080836040516108be9190611340565b908152602001604051809103902060000180546108da90611386565b90500361091c576040517f08c379a00000000000000000000000000000000000000000000000000000000081526004016109139061171c565b60405180910390fd5b60008260405161092c9190611340565b908152602001604051809103902060010160009054906101000a900460ff1661098a576040517f08c379a00000000000000000000000000000000000000000000000000000000081526004016109819061186b565b60405180910390fd5b60008260405161099a9190611340565b908152602001604051809103902060040160003373ffffffffffffffffffffffffffffffffffffffff1673ffffffffffffffffffffffffffffffffffffffff16815260200190815260200160002060009054906101000a900460ff1615610a36576040517f08c379a0000000000000000000000000000000000000000000000000000000008152600401610a2d906118d7565b60405180910390fd5b600082604051610a469190611340565b9081526020016040518091039020600301548110610a99576040517f08c379a0000000000000000000000000000000000000000000000000000000008152600401610a9090611943565b60405180910390fd5b600082604051610aa99190611340565b908152602001604051809103902060020160008281526020019081526020016000206001016000815480929190610adf906117d7565b91905055506001600083604051610af69190611340565b908152602001604051809103902060040160003373ffffffffffffffffffffffffffffffffffffffff1673ffffffffffffffffffffffffffffffffffffffff16815260200190815260200160002060006101000a81548160ff0219169083151502179055507f82ea01a4479f27996bbe8de24f4c8d962035fe2f32a2b130c8c9ca593ab91aa88282604051610b8c929190611158565b60405180910390a15050565b600080600083604051610bab9190611340565b90815260200160405180910390206000018054610bc790611386565b905003610c09576040517f08c379a0000000000000000000000000000000000000000000000000000000008152600401610c009061171c565b60405180910390fd5b600082604051610c199190611340565b9081526020016040518091039020600301549050919050565b60018181548110610c4257600080fd5b906000526020600020016000915090508054610c5d90611386565b80601f0160208091040260200160405190810160405280929190818152602001828054610c8990611386565b8015610cd65780601f10610cab57610100808354040283529160200191610cd6565b820191906000526020600020905b815481529060010190602001808311610cb957829003601f168201915b505050505081565b6000604051905090565b600080fd5b600080fd5b600080fd5b600080fd5b6000601f19601f8301169050919050565b7f4e487b7100000000000000000000000000000000000000000000000000000000600052604160045260246000fd5b610d4582610cfc565b810181811067ffffffffffffffff82111715610d6457610d63610d0d565b5b80604052505050565b6000610d77610cde565b9050610d838282610d3c565b919050565b600067ffffffffffffffff821115610da357610da2610d0d565b5b610dac82610cfc565b9050602081019050919050565b82818337600083830152505050565b6000610ddb610dd684610d88565b610d6d565b905082815260208101848484011115610df757610df6610cf7565b5b610e02848285610db9565b509392505050565b600082601f830112610e1f57610e1e610cf2565b5b8135610e2f848260208601610dc8565b91505092915050565b600067ffffffffffffffff821115610e5357610e52610d0d565b5b602082029050602081019050919050565b600080fd5b6000610e7c610e7784610e38565b610d6d565b90508083825260208201905060208402830185811115610e9f57610e9e610e64565b5b835b81811015610ee657803567ffffffffffffffff811115610ec457610ec3610cf2565b5b808601610ed18982610e0a565b85526020850194505050602081019050610ea1565b5050509392505050565b600082601f830112610f0557610f04610cf2565b5b8135610f15848260208601610e69565b91505092915050565b60008060408385031215610f3557610f34610ce8565b5b600083013567ffffffffffffffff811115610f5357610f52610ced565b5b610f5f85828601610e0a565b925050602083013567ffffffffffffffff811115610f8057610f7f610ced565b5b610f8c85828601610ef0565b9150509250929050565b600060208284031215610fac57610fab610ce8565b5b600082013567ffffffffffffffff811115610fca57610fc9610ced565b5b610fd684828501610e0a565b91505092915050565b600081519050919050565b600082825260208201905092915050565b60005b83811015611019578082015181840152602081019050610ffe565b60008484015250505050565b600061103082610fdf565b61103a8185610fea565b935061104a818560208601610ffb565b61105381610cfc565b840191505092915050565b60008115159050919050565b6110738161105e565b82525050565b6000819050919050565b61108c81611079565b82525050565b600060608201905081810360008301526110ac8186611025565b90506110bb602083018561106a565b6110c86040830184611083565b949350505050565b6110d981611079565b81146110e457600080fd5b50565b6000813590506110f6816110d0565b92915050565b6000806040838503121561111357611112610ce8565b5b600083013567ffffffffffffffff81111561113157611130610ced565b5b61113d85828601610e0a565b925050602061114e858286016110e7565b9150509250929050565b600060408201905081810360008301526111728185611025565b90506111816020830184611083565b9392505050565b600081519050919050565b600082825260208201905092915050565b6000819050602082019050919050565b600073ffffffffffffffffffffffffffffffffffffffff82169050919050565b60006111df826111b4565b9050919050565b6111ef816111d4565b82525050565b600061120183836111e6565b60208301905092915050565b6000602082019050919050565b600061122582611188565b61122f8185611193565b935061123a836111a4565b8060005b8381101561126b57815161125288826111f5565b975061125d8361120d565b92505060018101905061123e565b5085935050505092915050565b60006020820190508181036000830152611292818461121a565b905092915050565b60006020820190506112af6000830184611083565b92915050565b6000602082840312156112cb576112ca610ce8565b5b60006112d9848285016110e7565b91505092915050565b600060208201905081810360008301526112fc8184611025565b905092915050565b600081905092915050565b600061131a82610fdf565b6113248185611304565b9350611334818560208601610ffb565b80840191505092915050565b600061134c828461130f565b915081905092915050565b7f4e487b7100000000000000000000000000000000000000000000000000000000600052602260045260246000fd5b6000600282049050600182168061139e57607f821691505b6020821081036113b1576113b0611357565b5b50919050565b7f50494e20616c726561647920696e207573650000000000000000000000000000600082015250565b60006113ed601283610fea565b91506113f8826113b7565b602082019050919050565b6000602082019050818103600083015261141c816113e0565b9050919050565b60008190508160005260206000209050919050565b60006020601f8301049050919050565b600082821b905092915050565b6000600883026114857fffffffffffffffffffffffffffffffffffffffffffffffffffffffffffffffff82611448565b61148f8683611448565b95508019841693508086168417925050509392505050565b6000819050919050565b60006114cc6114c76114c284611079565b6114a7565b611079565b9050919050565b6000819050919050565b6114e6836114b1565b6114fa6114f2826114d3565b848454611455565b825550505050565b600090565b61150f611502565b61151a8184846114dd565b505050565b5b8181101561153e57611533600082611507565b600181019050611520565b5050565b601f8211156115835761155481611423565b61155d84611438565b8101602085101561156c578190505b61158061157885611438565b83018261151f565b50505b505050565b600082821c905092915050565b60006115a660001984600802611588565b1980831691505092915050565b60006115bf8383611595565b9150826002028217905092915050565b6115d882610fdf565b67ffffffffffffffff8111156115f1576115f0610d0d565b5b6115fb8254611386565b611606828285611542565b600060209050601f8311600181146116395760008415611627578287015190505b61163185826115b3565b865550611699565b601f19841661164786611423565b60005b8281101561166f5784890151825560018201915060208501945060208101905061164a565b8683101561168c5784890151611688601f891682611595565b8355505b6001600288020188555050505b505050505050565b7f4e487b7100000000000000000000000000000000000000000000000000000000600052603260045260246000fd5b7f456c656374696f6e20646f6573206e6f74206578697374000000000000000000600082015250565b6000611706601783610fea565b9150611711826116d0565b602082019050919050565b60006020820190508181036000830152611735816116f9565b9050919050565b7f496e76616c69642063616e64696461746520696e646578000000000000000000600082015250565b6000611772601783610fea565b915061177d8261173c565b602082019050919050565b600060208201905081810360008301526117a181611765565b9050919050565b7f4e487b7100000000000000000000000000000000000000000000000000000000600052601160045260246000fd5b60006117e282611079565b91507fffffffffffffffffffffffffffffffffffffffffffffffffffffffffffffffff8203611814576118136117a8565b5b600182019050919050565b7f456c656374696f6e20697320636c6f7365640000000000000000000000000000600082015250565b6000611855601283610fea565b91506118608261181f565b602082019050919050565b6000602082019050818103600083015261188481611848565b9050919050565b7f596f75206861766520616c726561647920766f74656400000000000000000000600082015250565b60006118c1601683610fea565b91506118cc8261188b565b602082019050919050565b600060208201905081810360008301526118f0816118b4565b9050919050565b7f496e76616c69642063616e646964617465000000000000000000000000000000600082015250565b600061192d601183610fea565b9150611938826118f7565b602082019050919050565b6000602082019050818103600083015261195c81611920565b905091905056fea264697066735822122019333563c89aae33225a8f9c1971f88041f637dd0da904523655838b81ccfb4964736f6c634300081c0033",
  "linkReferences": {},
  "deployedLinkReferences": {}
}