{
  "_format": "hh-sol-artifact-1",
  "contractName": "Voting",
  "sourceName": "contracts/voting.sol",
  "abi": [
    {
      "anonymous": false,
      "inputs": [
        {
          "indexed": false,
          "internalType": "string",
          "name": "pin",
          "type": "string"
        }
      ],
      "name": "ElectionCreated",
      "type": "event"
    },
    {
      "anonymous": false,
      "inputs": [
        {
          "indexed": false,
          "internalType": "string",
          "name": "pin",
          "type": "string"
        },
        {
          "indexed": false,
          "internalType": "uint256",
          "name": "candidateIndex",
          "type": "uint256"
        }
      ],
      "name": "Voted",
      "type": "event"
    },
    {
      "inputs": [
        {
          "internalType": "string",
          "name": "_pin",
          "type": "string"
        }
      ],
      "name": "closeElection",
      "outputs": [],
      "stateMutability": "nonpayable",
      "type": "function"
    },
    {
      "inputs": [
        {
          "internalType": "string",
          "name": "_pin",
          "type": "string"
        },
        {
          "internalType": "string[]",
          "name": "_candidates",
          "type": "string[]"
        }
      ],
      "name": "createElection",
      "outputs": [],
      "stateMutability": "nonpayable",
      "type": "function"
    },
    {
      "inputs": [
        {
          "internalType": "uint256",
          "name": "",
          "type": "uint256"
        }
      ],
      "name": "electionPins",
      "outputs": [
        {
          "internalType": "string",
          "name": "",
          "type": "string"
        }
      ],
      "stateMutability": "view",
      "type": "function"
    },
    {
      "inputs": [
        {
          "internalType": "string",
          "name": "",
          "type": "string"
        }
      ],
      "name": "elections",
      "outputs": [
        {
          "internalType": "string",
          "name": "pin",
          "type": "string"
        },
        {
          "internalType": "bool",
          "name": "active",
          "type": "bool"
        },
        {
          "internalType": "uint256",
          "name": "candidateCount",
          "type": "uint256"
        }
      ],
      "stateMutability": "view",
      "type": "function"
    },
    {
      "inputs": [
        {
          "internalType": "string",
          "name": "_pin",
          "type": "string"
        }
      ],
      "name": "getCandidateCount",
      "outputs": [
        {
          "internalType": "uint256",
          "name": "",
          "type": "uint256"
        }
      ],
      "stateMutability": "view",
      "type": "function"
    },
    {
      "inputs": [
        {
          "internalType": "string",
          "name": "_pin",
          "type": "string"
        },
        {
          "internalType": "uint256",
          "name": "_index",
          "type": "uint256"
        }
      ],
      "name": "getCandidateInfo",
      "outputs": [
        {
          "internalType": "string",
          "name": "",
          "type": "string"
        },
        {
          "internalType": "uint256",
          "name": "",
          "type": "uint256"
        }
      ],
      "stateMutability": "view",
      "type": "function"
    },
    {
      "inputs": [
        {
          "internalType": "string",
          "name": "_pin",
          "type": "string"
        }
      ],
      "name": "getElectionInfo",
      "outputs": [
        {
          "internalType": "bool",
          "name": "active",
          "type": "bool"
        },
        {
          "internalType": "uint256",
          "name": "candidateCount",
          "type": "uint256"
        }
      ],
      "stateMutability": "view",
      "type": "function"
    },
    {
      "inputs": [
        {
          "internalType": "string",
          "name": "_pin",
          "type": "string"
        }
      ],
      "name": "getVoters",
      "outputs": [
        {
          "internalType": "address[]",
          "name": "",
          "type": "address[]"
        }
      ],
      "stateMutability": "view",
      "type": "function"
    },
    {
      "inputs": [
        {
          "internalType": "string",
          "name": "_pin",
          "type": "string"
        },
        {
          "internalType": "uint256",
          "name": "_candidateIndex",
          "type": "uint256"
        }
      ],
      "name": "vote",
      "outputs": [],
      "stateMutability": "nonpayable",
      "type": "function"
    }
  ],
  "bytecode": "0x6080604052348015600f57600080fd5b50611ab28061001f6000396000f3fe608060405234801561001057600080fd5b50600436106100935760003560e01c8063878af33511610066578063878af33514610133578063a638580314610163578063ae179ebc1461017f578063ba1717e2146101af578063e0428cf3146101df57610093565b8063349813b2146100985780634a3ccc96146100b457806354b79377146100e65780637d8d6d8314610117575b600080fd5b6100b260048036038101906100ad919061100e565b610210565b005b6100ce60048036038101906100c99190611086565b6103cc565b6040516100dd93929190611182565b60405180910390f35b61010060048036038101906100fb91906111ec565b6104a1565b60405161010e929190611248565b60405180910390f35b610131600480360381019061012c9190611086565b61064d565b005b61014d60048036038101906101489190611086565b6106f8565b60405161015a9190611368565b60405180910390f35b61017d600480360381019061017891906111ec565b6108e9565b005b61019960048036038101906101949190611086565b610bc8565b6040516101a6919061138a565b60405180910390f35b6101c960048036038101906101c491906113a5565b610c62565b6040516101d691906113d2565b60405180910390f35b6101f960048036038101906101f49190611086565b610d0e565b6040516102079291906113f4565b60405180910390f35b600080836040516102219190611459565b9081526020016040518091039020600001805461023d9061149f565b90501461027f576040517f08c379a00000000000000000000000000000000000000000000000000000000081526004016102769061151c565b60405180910390fd5b600080836040516102909190611459565b90815260200160405180910390209050828160000190816102b191906116e8565b5060018160010160006101000a81548160ff0219169083151502179055508151816003018190555060005b825181101561035a576040518060400160405280848381518110610303576103026117ba565b5b602002602001015181526020016000815250826002016000838152602001908152602001600020600082015181600001908161033f91906116e8565b506020820151816001015590505080806001019150506102dc565b5060018390806001815401808255809150506001900390600052602060002001600090919091909150908161038f91906116e8565b507fca2fcb21be8a98de073c6f480caeadc3c4054effa10076cd2d6cb4fd381c4c91836040516103bf91906113d2565b60405180910390a1505050565b6000818051602081018201805184825260208301602085012081835280955050505050506000915090508060000180546104059061149f565b80601f01602080910402602001604051908101604052809291908181526020018280546104319061149f565b801561047e5780601f106104535761010080835404028352916020019161047e565b820191906000526020600020905b81548152906001019060200180831161046157829003601f168201915b5050505050908060010160009054906101000a900460ff16908060030154905083565b60606000806000856040516104b69190611459565b908152602001604051809103902060000180546104d29061149f565b905003610514576040517f08c379a000000000000000000000000000000000000000000000000000000000815260040161050b90611835565b60405180910390fd5b6000846040516105249190611459565b9081526020016040518091039020600301548310610577576040517f08c379a000000000000000000000000000000000000000000000000000000000815260040161056e906118a1565b60405180910390fd5b600080856040516105889190611459565b9081526020016040518091039020600201600085815260200190815260200160002090508060000181600101548180546105c19061149f565b80601f01602080910402602001604051908101604052809291908181526020018280546105ed9061149f565b801561063a5780601f1061060f5761010080835404028352916020019161063a565b820191906000526020600020905b81548152906001019060200180831161061d57829003601f168201915b5050505050915092509250509250929050565b6000808260405161065e9190611459565b9081526020016040518091039020600001805461067a9061149f565b9050036106bc576040517f08c379a00000000000000000000000000000000000000000000000000000000081526004016106b390611835565b60405180910390fd5b600080826040516106cd9190611459565b908152602001604051809103902060010160006101000a81548160ff02191690831515021790555050565b60606000808360405161070b9190611459565b908152602001604051809103902060000180546107279061149f565b905003610769576040517f08c379a000000000000000000000000000000000000000000000000000000000815260040161076090611835565b60405180910390fd5b6000808360405161077a9190611459565b90815260200160405180910390206003015467ffffffffffffffff8111156107a5576107a4610dfd565b5b6040519080825280602002602001820160405280156107d35781602001602082028036833780820191505090505b5090506000805b6000856040516107ea9190611459565b9081526020016040518091039020600301548110156108de576000856040516108139190611459565b908152602001604051809103902060040160003373ffffffffffffffffffffffffffffffffffffffff1673ffffffffffffffffffffffffffffffffffffffff16815260200190815260200160002060009054906101000a900460ff16156108d15733838381518110610888576108876117ba565b5b602002602001019073ffffffffffffffffffffffffffffffffffffffff16908173ffffffffffffffffffffffffffffffffffffffff168152505081806108cd906118f0565b9250505b80806001019150506107da565b508192505050919050565b600080836040516108fa9190611459565b9081526020016040518091039020600301541161094c576040517f08c379a000000000000000000000000000000000000000000000000000000000815260040161094390611835565b60405180910390fd5b60008260405161095c9190611459565b908152602001604051809103902060010160009054906101000a900460ff166109ba576040517f08c379a00000000000000000000000000000000000000000000000000000000081526004016109b190611984565b60405180910390fd5b6000826040516109ca9190611459565b908152602001604051809103902060040160003373ffffffffffffffffffffffffffffffffffffffff1673ffffffffffffffffffffffffffffffffffffffff16815260200190815260200160002060009054906101000a900460ff1615610a66576040517f08c379a0000000000000000000000000000000000000000000000000000000008152600401610a5d906119f0565b60405180910390fd5b600082604051610a769190611459565b9081526020016040518091039020600301548110610ac9576040517f08c379a0000000000000000000000000000000000000000000000000000000008152600401610ac090611a5c565b60405180910390fd5b600082604051610ad99190611459565b908152602001604051809103902060020160008281526020019081526020016000206001016000815480929190610b0f906118f0565b91905055506001600083604051610b269190611459565b908152602001604051809103902060040160003373ffffffffffffffffffffffffffffffffffffffff1673ffffffffffffffffffffffffffffffffffffffff16815260200190815260200160002060006101000a81548160ff0219169083151502179055507f82ea01a4479f27996bbe8de24f4c8d962035fe2f32a2b130c8c9ca593ab91aa88282604051610bbc929190611248565b60405180910390a15050565b600080600083604051610bdb9190611459565b90815260200160405180910390206000018054610bf79061149f565b905003610c39576040517f08c379a0000000000000000000000000000000000000000000000000000000008152600401610c3090611835565b60405180910390fd5b600082604051610c499190611459565b9081526020016040518091039020600301549050919050565b60018181548110610c7257600080fd5b906000526020600020016000915090508054610c8d9061149f565b80601f0160208091040260200160405190810160405280929190818152602001828054610cb99061149f565b8015610d065780601f10610cdb57610100808354040283529160200191610d06565b820191906000526020600020905b815481529060010190602001808311610ce957829003601f168201915b505050505081565b60008060008084604051610d229190611459565b90815260200160405180910390206003015411610d74576040517f08c379a0000000000000000000000000000000000000000000000000000000008152600401610d6b90611835565b60405180910390fd5b600083604051610d849190611459565b908152602001604051809103902060010160009054906101000a900460ff16600084604051610db39190611459565b90815260200160405180910390206003015491509150915091565b6000604051905090565b600080fd5b600080fd5b600080fd5b600080fd5b6000601f19601f8301169050919050565b7f4e487b7100000000000000000000000000000000000000000000000000000000600052604160045260246000fd5b610e3582610dec565b810181811067ffffffffffffffff82111715610e5457610e53610dfd565b5b80604052505050565b6000610e67610dce565b9050610e738282610e2c565b919050565b600067ffffffffffffffff821115610e9357610e92610dfd565b5b610e9c82610dec565b9050602081019050919050565b82818337600083830152505050565b6000610ecb610ec684610e78565b610e5d565b905082815260208101848484011115610ee757610ee6610de7565b5b610ef2848285610ea9565b509392505050565b600082601f830112610f0f57610f0e610de2565b5b8135610f1f848260208601610eb8565b91505092915050565b600067ffffffffffffffff821115610f4357610f42610dfd565b5b602082029050602081019050919050565b600080fd5b6000610f6c610f6784610f28565b610e5d565b90508083825260208201905060208402830185811115610f8f57610f8e610f54565b5b835b81811015610fd657803567ffffffffffffffff811115610fb457610fb3610de2565b5b808601610fc18982610efa565b85526020850194505050602081019050610f91565b5050509392505050565b600082601f830112610ff557610ff4610de2565b5b8135611005848260208601610f59565b91505092915050565b6000806040838503121561102557611024610dd8565b5b600083013567ffffffffffffffff81111561104357611042610ddd565b5b61104f85828601610efa565b925050602083013567ffffffffffffffff8111156110705761106f610ddd565b5b61107c85828601610fe0565b9150509250929050565b60006020828403121561109c5761109b610dd8565b5b600082013567ffffffffffffffff8111156110ba576110b9610ddd565b5b6110c684828501610efa565b91505092915050565b600081519050919050565b600082825260208201905092915050565b60005b838110156111095780820151818401526020810190506110ee565b60008484015250505050565b6000611120826110cf565b61112a81856110da565b935061113a8185602086016110eb565b61114381610dec565b840191505092915050565b60008115159050919050565b6111638161114e565b82525050565b6000819050919050565b61117c81611169565b82525050565b6000606082019050818103600083015261119c8186611115565b90506111ab602083018561115a565b6111b86040830184611173565b949350505050565b6111c981611169565b81146111d457600080fd5b50565b6000813590506111e6816111c0565b92915050565b6000806040838503121561120357611202610dd8565b5b600083013567ffffffffffffffff81111561122157611220610ddd565b5b61122d85828601610efa565b925050602061123e858286016111d7565b9150509250929050565b600060408201905081810360008301526112628185611115565b90506112716020830184611173565b9392505050565b600081519050919050565b600082825260208201905092915050565b6000819050602082019050919050565b600073ffffffffffffffffffffffffffffffffffffffff82169050919050565b60006112cf826112a4565b9050919050565b6112df816112c4565b82525050565b60006112f183836112d6565b60208301905092915050565b6000602082019050919050565b600061131582611278565b61131f8185611283565b935061132a83611294565b8060005b8381101561135b57815161134288826112e5565b975061134d836112fd565b92505060018101905061132e565b5085935050505092915050565b60006020820190508181036000830152611382818461130a565b905092915050565b600060208201905061139f6000830184611173565b92915050565b6000602082840312156113bb576113ba610dd8565b5b60006113c9848285016111d7565b91505092915050565b600060208201905081810360008301526113ec8184611115565b905092915050565b6000604082019050611409600083018561115a565b6114166020830184611173565b9392505050565b600081905092915050565b6000611433826110cf565b61143d818561141d565b935061144d8185602086016110eb565b80840191505092915050565b60006114658284611428565b915081905092915050565b7f4e487b7100000000000000000000000000000000000000000000000000000000600052602260045260246000fd5b600060028204905060018216806114b757607f821691505b6020821081036114ca576114c9611470565b5b50919050565b7f50494e20616c726561647920696e207573650000000000000000000000000000600082015250565b60006115066012836110da565b9150611511826114d0565b602082019050919050565b60006020820190508181036000830152611535816114f9565b9050919050565b60008190508160005260206000209050919050565b60006020601f8301049050919050565b600082821b905092915050565b60006008830261159e7fffffffffffffffffffffffffffffffffffffffffffffffffffffffffffffffff82611561565b6115a88683611561565b95508019841693508086168417925050509392505050565b6000819050919050565b60006115e56115e06115db84611169565b6115c0565b611169565b9050919050565b6000819050919050565b6115ff836115ca565b61161361160b826115ec565b84845461156e565b825550505050565b600090565b61162861161b565b6116338184846115f6565b505050565b5b818110156116575761164c600082611620565b600181019050611639565b5050565b601f82111561169c5761166d8161153c565b61167684611551565b81016020851015611685578190505b61169961169185611551565b830182611638565b50505b505050565b600082821c905092915050565b60006116bf600019846008026116a1565b1980831691505092915050565b60006116d883836116ae565b9150826002028217905092915050565b6116f1826110cf565b67ffffffffffffffff81111561170a57611709610dfd565b5b611714825461149f565b61171f82828561165b565b600060209050601f8311600181146117525760008415611740578287015190505b61174a85826116cc565b8655506117b2565b601f1984166117608661153c565b60005b8281101561178857848901518255600182019150602085019450602081019050611763565b868310156117a557848901516117a1601f8916826116ae565b8355505b6001600288020188555050505b505050505050565b7f4e487b7100000000000000000000000000000000000000000000000000000000600052603260045260246000fd5b7f456c656374696f6e20646f6573206e6f74206578697374000000000000000000600082015250565b600061181f6017836110da565b915061182a826117e9565b602082019050919050565b6000602082019050818103600083015261184e81611812565b9050919050565b7f496e76616c69642063616e64696461746520696e646578000000000000000000600082015250565b600061188b6017836110da565b915061189682611855565b602082019050919050565b600060208201905081810360008301526118ba8161187e565b9050919050565b7f4e487b7100000000000000000000000000000000000000000000000000000000600052601160045260246000fd5b60006118fb82611169565b91507fffffffffffffffffffffffffffffffffffffffffffffffffffffffffffffffff820361192d5761192c6118c1565b5b600182019050919050565b7f456c656374696f6e20697320636c6f7365640000000000000000000000000000600082015250565b600061196e6012836110da565b915061197982611938565b602082019050919050565b6000602082019050818103600083015261199d81611961565b9050919050565b7f596f75206861766520616c726561647920766f74656400000000000000000000600082015250565b60006119da6016836110da565b91506119e5826119a4565b602082019050919050565b60006020820190508181036000830152611a09816119cd565b9050919050565b7f496e76616c69642063616e646964617465000000000000000000000000000000600082015250565b6000611a466011836110da565b9150611a5182611a10565b602082019050919050565b60006020820190508181036000830152611a7581611a39565b905091905056fea26469706673582212206ceb6b94911ccde21a6d3eea5aaf06a4f3630d09d696d778de33d1b1a6538ed364736f6c634300081c0033",
  "linkReferences": {},
  "deployedLinkReferences": {}
}